{
  "transactions": [
    {
      "hash": "0x8dee655b55e81602803ecf8959c8d0be478915a4f5eed6f2bb1a541e8c3249f2",
      "transactionType": "CALL",
      "contractName": null,
      "contractAddress": "0x5fac7f2c99d9e06deff2f579fde67a2ecdf0e0ac",
      "function": "transferWithAuthorization(address,address,uint256,uint256,uint256,bytes32,bytes,uint8,bytes32,bytes32)",
      "arguments": [
        "0x0187523c9b2583B52c5Ca407b68A369F1a560F1B",
        "0xC1333a31EE5f3F302CB0428921f2908e6CAddEb1",
        "1000000",
        "1763789323",
        "1763790423",
        "0xc35a6d8c638a5bbd23598b0376b308d25519e3cf815a88d8f0b11d1a674204c9",
        "0x000000000000000000000000c1333a31ee5f3f302cb0428921f2908e6caddeb10000000000000000000000000000000000000000000000000000000000000040000000000000000000000000000000000000000000000000000000000000004000000000000000000000000000000000000000000000000000000000000000890000000000000000000000000187523c9b2583b52c5ca407b68a369f1a560f1b",
        "28",
        "0xa59ff15b6f969c7f4a67f360b3ad5ce7a6c5436e69545c2fd2042a39fb73cb24",
        "0x75e1d391f3afe7162e4d3bbfab88da33bb77acd1f56da6510d87cd7f876b25dd"
      ],
      "transaction": {
        "from": "0x0187523c9b2583b52c5ca407b68a369f1a560f1b",
        "to": "0x5fac7f2c99d9e06deff2f579fde67a2ecdf0e0ac",
        "gas": "0x53eb8",
        "value": "0x0",
        "input": "0x4160a7670000000000000000000000000187523c9b2583b52c5ca407b68a369f1a560f1b000000000000000000000000c1333a31ee5f3f302cb0428921f2908e6caddeb100000000000000000000000000000000000000000000000000000000000f42400000000000000000000000000000000000000000000000000000000069214a0b0000000000000000000000000000000000000000000000000000000069214e57c35a6d8c638a5bbd23598b0376b308d25519e3cf815a88d8f0b11d1a674204c90000000000000000000000000000000000000000000000000000000000000140000000000000000000000000000000000000000000000000000000000000001ca59ff15b6f969c7f4a67f360b3ad5ce7a6c5436e69545c2fd2042a39fb73cb2475e1d391f3afe7162e4d3bbfab88da33bb77acd1f56da6510d87cd7f876b25dd00000000000000000000000000000000000000000000000000000000000000a0000000000000000000000000c1333a31ee5f3f302cb0428921f2908e6caddeb10000000000000000000000000000000000000000000000000000000000000040000000000000000000000000000000000000000000000000000000000000004000000000000000000000000000000000000000000000000000000000000000890000000000000000000000000187523c9b2583b52c5ca407b68a369f1a560f1b",
        "nonce": "0xd",
        "chainId": "0x2105"
      },
      "additionalContracts": [],
      "isFixedGasLimit": false
    }
  ],
  "receipts": [
    {
      "status": "0x1",
      "cumulativeGasUsed": "0x1a781de",
      "logs": [
        {
          "address": "0x5fac7f2c99d9e06deff2f579fde67a2ecdf0e0ac",
          "topics": [
            "0x98de503528ee59b575ef0c0a2576a82497bfc029a5685b209e9ec333479b10a5",
            "0x0000000000000000000000000187523c9b2583b52c5ca407b68a369f1a560f1b",
            "0xc35a6d8c638a5bbd23598b0376b308d25519e3cf815a88d8f0b11d1a674204c9"
          ],
          "data": "0x",
          "blockHash": "0x5e3e1fc1198cb550404669d4f646919678335c7d322342a965f53dad01271de4",
          "blockNumber": "0x24b76c8",
          "blockTimestamp": "0x69214a73",
          "transactionHash": "0x8dee655b55e81602803ecf8959c8d0be478915a4f5eed6f2bb1a541e8c3249f2",
          "transactionIndex": "0xe0",
          "logIndex": "0x30f",
          "removed": false
        },
        {
          "address": "0x5fac7f2c99d9e06deff2f579fde67a2ecdf0e0ac",
          "topics": [
            "0xddf252ad1be2c89b69c2b068fc378daa952ba7f163c4a11628f55a4df523b3ef",
            "0x0000000000000000000000000187523c9b2583b52c5ca407b68a369f1a560f1b",
            "0x000000000000000000000000c1333a31ee5f3f302cb0428921f2908e6caddeb1"
          ],
          "data": "0x00000000000000000000000000000000000000000000000000000000000f4240",
          "blockHash": "0x5e3e1fc1198cb550404669d4f646919678335c7d322342a965f53dad01271de4",
          "blockNumber": "0x24b76c8",
          "blockTimestamp": "0x69214a73",
          "transactionHash": "0x8dee655b55e81602803ecf8959c8d0be478915a4f5eed6f2bb1a541e8c3249f2",
          "transactionIndex": "0xe0",
          "logIndex": "0x310",
          "removed": false
        },
        {
          "address": "0x5fac7f2c99d9e06deff2f579fde67a2ecdf0e0ac",
          "topics": [
            "0xddf252ad1be2c89b69c2b068fc378daa952ba7f163c4a11628f55a4df523b3ef",
            "0x000000000000000000000000c1333a31ee5f3f302cb0428921f2908e6caddeb1",
            "0x0000000000000000000000000000000000000000000000000000000000000000"
          ],
          "data": "0x00000000000000000000000000000000000000000000000000000000000f4240",
          "blockHash": "0x5e3e1fc1198cb550404669d4f646919678335c7d322342a965f53dad01271de4",
          "blockNumber": "0x24b76c8",
          "blockTimestamp": "0x69214a73",
          "transactionHash": "0x8dee655b55e81602803ecf8959c8d0be478915a4f5eed6f2bb1a541e8c3249f2",
          "transactionIndex": "0xe0",
          "logIndex": "0x311",
          "removed": false
        },
        {
          "address": "0xb5320b0b3a13cc860893e2bd79fcd7e13484dda2",
          "topics": [
            "0x61ed099e74a97a1d7f8bb0952a88ca8b7b8ebd00c126ea04671f92a81213318a"
          ],
          "data": "0x0000000000000000000000004894cfd59ac3757e7de5fd302ea8032f8ab71f650000000000000000000000000000000000000000000000000000000000000000",
          "blockHash": "0x5e3e1fc1198cb550404669d4f646919678335c7d322342a965f53dad01271de4",
          "blockNumber": "0x24b76c8",
          "blockTimestamp": "0x69214a73",
          "transactionHash": "0x8dee655b55e81602803ecf8959c8d0be478915a4f5eed6f2bb1a541e8c3249f2",
          "transactionIndex": "0xe0",
          "logIndex": "0x312",
          "removed": false
        },
        {
          "address": "0xb5320b0b3a13cc860893e2bd79fcd7e13484dda2",
          "topics": [
            "0x07ea52d82345d6e838192107d8fd7123d9c2ec8e916cd0aad13fd2b60db24644"
          ],
          "data": "0x000000000000000000000000000000000000000000000000000000000000006000000000000000000000000000000000000000000000000000000000000000a000000000000000000000000000000000000000000000000000000000000000c000000000000000000000000000000000000000000000000000000000000000010000000000000000000000005b0399fc7ee8d6f2dc21e57efa54d9d3703702f2000000000000000000000000000000000000000000000000000000000000000000000000000000000000000000000000000000000000000000000000000000010000000000000000000000000000000000000000000000000000000000000000",
          "blockHash": "0x5e3e1fc1198cb550404669d4f646919678335c7d322342a965f53dad01271de4",
          "blockNumber": "0x24b76c8",
          "blockTimestamp": "0x69214a73",
          "transactionHash": "0x8dee655b55e81602803ecf8959c8d0be478915a4f5eed6f2bb1a541e8c3249f2",
          "transactionIndex": "0xe0",
          "logIndex": "0x313",
          "removed": false
        },
        {
          "address": "0x1a44076050125825900e736c501f859c50fe728c",
          "topics": [
            "0x1ab700d4ced0c005b164c0f789fd09fcbb0156d4c2041b8a3bfbcd961cd1567f"
          ],
          "data": "0x000000000000000000000000000000000000000000000000000000000000006000000000000000000000000000000000000000000000000000000000000001a0000000000000000000000000b5320b0b3a13cc860893e2bd79fcd7e13484dda20000000000000000000000000000000000000000000000000000000000000119010000000000000001000075e80000000000000000000000005fac7f2c99d9e06deff2f579fde67a2ecdf0e0ac0000759d0000000000000000000000005fac7f2c99d9e06deff2f579fde67a2ecdf0e0ac10b8d2904e4d298b2d101e4eef3a5b1f7839ef92db7da3a85f96280d44323df90000000000000000000000005fac7f2c99d9e06deff2f579fde67a2ecdf0e0ac00000000000f4240000000000000000000000000c1333a31ee5f3f302cb0428921f2908e6caddeb1c35a6d8c638a5bbd23598b0376b308d25519e3cf815a88d8f0b11d1a674204c90000000000000000000000000187523c9b2583b52c5ca407b68a369f1a560f1b0000000000000000000000000187523c9b2583b52c5ca407b68a369f1a560f1b000000000000000000000000000000000000000000000000000000000000000000000000000016000301001101000000000000000000000000000249f000000000000000000000",
          "blockHash": "0x5e3e1fc1198cb550404669d4f646919678335c7d322342a965f53dad01271de4",
          "blockNumber": "0x24b76c8",
          "blockTimestamp": "0x69214a73",
          "transactionHash": "0x8dee655b55e81602803ecf8959c8d0be478915a4f5eed6f2bb1a541e8c3249f2",
          "transactionIndex": "0xe0",
          "logIndex": "0x314",
          "removed": false
        },
        {
          "address": "0x5fac7f2c99d9e06deff2f579fde67a2ecdf0e0ac",
          "topics": [
            "0x85496b760a4b7f8d66384b9df21b381f5d1b1e79f229a47aaf4c232edc2fe59a",
            "0x10b8d2904e4d298b2d101e4eef3a5b1f7839ef92db7da3a85f96280d44323df9",
            "0x000000000000000000000000c1333a31ee5f3f302cb0428921f2908e6caddeb1"
          ],
          "data": "0x000000000000000000000000000000000000000000000000000000000000759d00000000000000000000000000000000000000000000000000000000000f424000000000000000000000000000000000000000000000000000000000000f4240",
          "blockHash": "0x5e3e1fc1198cb550404669d4f646919678335c7d322342a965f53dad01271de4",
          "blockNumber": "0x24b76c8",
          "blockTimestamp": "0x69214a73",
          "transactionHash": "0x8dee655b55e81602803ecf8959c8d0be478915a4f5eed6f2bb1a541e8c3249f2",
          "transactionIndex": "0xe0",
          "logIndex": "0x315",
          "removed": false
        }
      ],
      "logsBloom": "0x00000000000000000000000000000000000000000000000200000020001000000000000000000000000000200000000000000000040000000000000200000000200002000000000000000448000080000000000000100000000000010000000100000000120000008000000000000800000000000010000000000010000000000000000000000000004000080000000000000000000000004004000000000000000000008000000400100400000000200004000000400000000440000000200000000002000000000000000080000000000000000000000000000000000020000000040000000000000000000000002000000000018000000000000000000000",
      "type": "0x2",
      "transactionHash": "0x8dee655b55e81602803ecf8959c8d0be478915a4f5eed6f2bb1a541e8c3249f2",
      "transactionIndex": "0xe0",
      "blockHash": "0x5e3e1fc1198cb550404669d4f646919678335c7d322342a965f53dad01271de4",
      "blockNumber": "0x24b76c8",
      "gasUsed": "0x3961a",
      "effectiveGasPrice": "0x31bc14",
      "from": "0x0187523c9b2583b52c5ca407b68a369f1a560f1b",
      "to": "0x5fac7f2c99d9e06deff2f579fde67a2ecdf0e0ac",
      "contractAddress": null,
      "l1BaseFeeScalar": "0x8dd",
      "l1BlobBaseFee": "0x1",
      "l1BlobBaseFeeScalar": "0x101c12",
      "l1Fee": "0x1db4beaa",
      "l1GasPrice": "0x82ebd60",
      "l1GasUsed": "0xf6d"
    }
  ],
  "libraries": [],
  "pending": [],
  "returns": {},
  "timestamp": 1763789427452,
  "chain": 8453,
  "commit": "9db4fb9"
}