{
  "transactions": [
    {
      "hash": "0xab90b0e9c17bfe3fec49a9693c3985ac6718f7884278de79d225aa7622b8553f",
      "transactionType": "CALL",
      "contractName": null,
      "contractAddress": "0x5f04315f7574ef5b5f91113d6811d199bd987df3",
      "function": "transferWithAuthorization(address,address,uint256,uint256,uint256,bytes32,bytes,uint8,bytes32,bytes32)",
      "arguments": [
        "0xA97E428d98d342C394E77086D2a4174451C4c290",
        "0x2099205873caAB80BeF9DBBa3fa8747124FCCCed",
        "1000000",
        "1763861005",
        "1763862105",
        "0x99c3002425c9f167d6a4e792f41104233734786d8ca46360b6c2a34de54edfe9",
        "0x0000000000000000000000002099205873caab80bef9dbba3fa8747124fccced000000000000000000000000000000000000000000000000000000000000004000000000000000000000000000000000000000000000000000000000000000400000000000000000000000000000000000000000000000000000000000000089000000000000000000000000a97e428d98d342c394e77086d2a4174451c4c290",
        "28",
        "0xe48f8021fd9f72e31728aa0662ba9138f725412301020297dd92967fe6ff7a30",
        "0x461b09dc9c6182fceeb6d975ae149abbdae9e34825a896aa4641de17aaf9b52c"
      ],
      "transaction": {
        "from": "0xa97e428d98d342c394e77086d2a4174451c4c290",
        "to": "0x5f04315f7574ef5b5f91113d6811d199bd987df3",
        "gas": "0x4f40f",
        "value": "0x0",
        "input": "0x4160a767000000000000000000000000a97e428d98d342c394e77086d2a4174451c4c2900000000000000000000000002099205873caab80bef9dbba3fa8747124fccced00000000000000000000000000000000000000000000000000000000000f4240000000000000000000000000000000000000000000000000000000006922620d000000000000000000000000000000000000000000000000000000006922665999c3002425c9f167d6a4e792f41104233734786d8ca46360b6c2a34de54edfe90000000000000000000000000000000000000000000000000000000000000140000000000000000000000000000000000000000000000000000000000000001ce48f8021fd9f72e31728aa0662ba9138f725412301020297dd92967fe6ff7a30461b09dc9c6182fceeb6d975ae149abbdae9e34825a896aa4641de17aaf9b52c00000000000000000000000000000000000000000000000000000000000000a00000000000000000000000002099205873caab80bef9dbba3fa8747124fccced000000000000000000000000000000000000000000000000000000000000004000000000000000000000000000000000000000000000000000000000000000400000000000000000000000000000000000000000000000000000000000000089000000000000000000000000a97e428d98d342c394e77086d2a4174451c4c290",
        "nonce": "0xd",
        "chainId": "0x2105"
      },
      "additionalContracts": [],
      "isFixedGasLimit": false
    }
  ],
  "receipts": [
    {
      "status": "0x1",
      "cumulativeGasUsed": "0x259ed3b",
      "logs": [
        {
          "address": "0x5f04315f7574ef5b5f91113d6811d199bd987df3",
          "topics": [
            "0x98de503528ee59b575ef0c0a2576a82497bfc029a5685b209e9ec333479b10a5",
            "0x000000000000000000000000a97e428d98d342c394e77086d2a4174451c4c290",
            "0x99c3002425c9f167d6a4e792f41104233734786d8ca46360b6c2a34de54edfe9"
          ],
          "data": "0x",
          "blockHash": "0xc264d1bee6812386f57a617f7d9619dd426618a32cef27582ddd00b24c9c3886",
          "blockNumber": "0x24c02d3",
          "transactionHash": "0xab90b0e9c17bfe3fec49a9693c3985ac6718f7884278de79d225aa7622b8553f",
          "transactionIndex": "0x116",
          "logIndex": "0x20c",
          "removed": false
        },
        {
          "address": "0x5f04315f7574ef5b5f91113d6811d199bd987df3",
          "topics": [
            "0xddf252ad1be2c89b69c2b068fc378daa952ba7f163c4a11628f55a4df523b3ef",
            "0x000000000000000000000000a97e428d98d342c394e77086d2a4174451c4c290",
            "0x0000000000000000000000002099205873caab80bef9dbba3fa8747124fccced"
          ],
          "data": "0x00000000000000000000000000000000000000000000000000000000000f4240",
          "blockHash": "0xc264d1bee6812386f57a617f7d9619dd426618a32cef27582ddd00b24c9c3886",
          "blockNumber": "0x24c02d3",
          "transactionHash": "0xab90b0e9c17bfe3fec49a9693c3985ac6718f7884278de79d225aa7622b8553f",
          "transactionIndex": "0x116",
          "logIndex": "0x20d",
          "removed": false
        },
        {
          "address": "0x5f04315f7574ef5b5f91113d6811d199bd987df3",
          "topics": [
            "0xddf252ad1be2c89b69c2b068fc378daa952ba7f163c4a11628f55a4df523b3ef",
            "0x0000000000000000000000002099205873caab80bef9dbba3fa8747124fccced",
            "0x0000000000000000000000000000000000000000000000000000000000000000"
          ],
          "data": "0x00000000000000000000000000000000000000000000000000000000000f4240",
          "blockHash": "0xc264d1bee6812386f57a617f7d9619dd426618a32cef27582ddd00b24c9c3886",
          "blockNumber": "0x24c02d3",
          "transactionHash": "0xab90b0e9c17bfe3fec49a9693c3985ac6718f7884278de79d225aa7622b8553f",
          "transactionIndex": "0x116",
          "logIndex": "0x20e",
          "removed": false
        },
        {
          "address": "0xb5320b0b3a13cc860893e2bd79fcd7e13484dda2",
          "topics": [
            "0x61ed099e74a97a1d7f8bb0952a88ca8b7b8ebd00c126ea04671f92a81213318a"
          ],
          "data": "0x000000000000000000000000cb4bb65bf5434c55b2cf137ac36428abc86e5de60000000000000000000000000000000000000000000000000000000000000000",
          "blockHash": "0xc264d1bee6812386f57a617f7d9619dd426618a32cef27582ddd00b24c9c3886",
          "blockNumber": "0x24c02d3",
          "transactionHash": "0xab90b0e9c17bfe3fec49a9693c3985ac6718f7884278de79d225aa7622b8553f",
          "transactionIndex": "0x116",
          "logIndex": "0x20f",
          "removed": false
        },
        {
          "address": "0xb5320b0b3a13cc860893e2bd79fcd7e13484dda2",
          "topics": [
            "0x07ea52d82345d6e838192107d8fd7123d9c2ec8e916cd0aad13fd2b60db24644"
          ],
          "data": "0x000000000000000000000000000000000000000000000000000000000000006000000000000000000000000000000000000000000000000000000000000000a000000000000000000000000000000000000000000000000000000000000000c00000000000000000000000000000000000000000000000000000000000000001000000000000000000000000380e3cfbc4260daade007f8da9b8cfe19cdd174c000000000000000000000000000000000000000000000000000000000000000000000000000000000000000000000000000000000000000000000000000000010000000000000000000000000000000000000000000000000000000000000000",
          "blockHash": "0xc264d1bee6812386f57a617f7d9619dd426618a32cef27582ddd00b24c9c3886",
          "blockNumber": "0x24c02d3",
          "transactionHash": "0xab90b0e9c17bfe3fec49a9693c3985ac6718f7884278de79d225aa7622b8553f",
          "transactionIndex": "0x116",
          "logIndex": "0x210",
          "removed": false
        },
        {
          "address": "0x1a44076050125825900e736c501f859c50fe728c",
          "topics": [
            "0x1ab700d4ced0c005b164c0f789fd09fcbb0156d4c2041b8a3bfbcd961cd1567f"
          ],
          "data": "0x000000000000000000000000000000000000000000000000000000000000006000000000000000000000000000000000000000000000000000000000000001a0000000000000000000000000b5320b0b3a13cc860893e2bd79fcd7e13484dda20000000000000000000000000000000000000000000000000000000000000119010000000000000001000075e80000000000000000000000005f04315f7574ef5b5f91113d6811d199bd987df30000759d0000000000000000000000005f04315f7574ef5b5f91113d6811d199bd987df3ee3ae20e6be5c611151748e40af119efcd79150919eb59c3ef841cfc4e6b4d4a0000000000000000000000005f04315f7574ef5b5f91113d6811d199bd987df300000000000f42400000000000000000000000002099205873caab80bef9dbba3fa8747124fccced99c3002425c9f167d6a4e792f41104233734786d8ca46360b6c2a34de54edfe9000000000000000000000000a97e428d98d342c394e77086d2a4174451c4c290000000000000000000000000a97e428d98d342c394e77086d2a4174451c4c290000000000000000000000000000000000000000000000000000000000000000000000000000016000301001101000000000000000000000000000249f000000000000000000000",
          "blockHash": "0xc264d1bee6812386f57a617f7d9619dd426618a32cef27582ddd00b24c9c3886",
          "blockNumber": "0x24c02d3",
          "transactionHash": "0xab90b0e9c17bfe3fec49a9693c3985ac6718f7884278de79d225aa7622b8553f",
          "transactionIndex": "0x116",
          "logIndex": "0x211",
          "removed": false
        },
        {
          "address": "0x5f04315f7574ef5b5f91113d6811d199bd987df3",
          "topics": [
            "0x85496b760a4b7f8d66384b9df21b381f5d1b1e79f229a47aaf4c232edc2fe59a",
            "0xee3ae20e6be5c611151748e40af119efcd79150919eb59c3ef841cfc4e6b4d4a",
            "0x0000000000000000000000002099205873caab80bef9dbba3fa8747124fccced"
          ],
          "data": "0x000000000000000000000000000000000000000000000000000000000000759d00000000000000000000000000000000000000000000000000000000000f424000000000000000000000000000000000000000000000000000000000000f4240",
          "blockHash": "0xc264d1bee6812386f57a617f7d9619dd426618a32cef27582ddd00b24c9c3886",
          "blockNumber": "0x24c02d3",
          "transactionHash": "0xab90b0e9c17bfe3fec49a9693c3985ac6718f7884278de79d225aa7622b8553f",
          "transactionIndex": "0x116",
          "logIndex": "0x212",
          "removed": false
        }
      ],
      "logsBloom": "0x00820000000040000000000000000000000000000000000000000000001000000000000000001000000000000000000000000000000000000000000200000000000002000000000000000488000000000000000000000000000000000000000100000020420000008000000000000808000000000010000080000010000000000000000000000000000000080000000000000000000000004004000000000000000000008002000000100000000000000004000000400000000440000000000000000002000000000000000080000800000000000000000000000000000020000000040000000000020000000000402000000000018200000000000000000000",
      "type": "0x2",
      "transactionHash": "0xab90b0e9c17bfe3fec49a9693c3985ac6718f7884278de79d225aa7622b8553f",
      "transactionIndex": "0x116",
      "blockHash": "0xc264d1bee6812386f57a617f7d9619dd426618a32cef27582ddd00b24c9c3886",
      "blockNumber": "0x24c02d3",
      "gasUsed": "0x3960e",
      "effectiveGasPrice": "0xd058d",
      "from": "0xa97e428d98d342c394e77086d2a4174451c4c290",
      "to": "0x5f04315f7574ef5b5f91113d6811d199bd987df3",
      "contractAddress": null,
      "l1BaseFeeScalar": "0x8dd",
      "l1BlobBaseFee": "0x1",
      "l1BlobBaseFeeScalar": "0x101c12",
      "l1Fee": "0x230dfdcc",
      "l1GasPrice": "0x3eccf35",
      "l1GasUsed": "0xf60"
    }
  ],
  "libraries": [],
  "pending": [],
  "returns": {},
  "timestamp": 1763861130660,
  "chain": 8453,
  "commit": "da227e9"
}