{
  "transactions": [
    {
      "hash": "0xb5061a9f8071dad8b13489d7f2f6ab846505dec2cc00b26d9af42a8330e7fb68",
      "transactionType": "CALL",
      "contractName": null,
      "contractAddress": "0x3f5dbe3f44228774468d9a90232775270fbb1d31",
      "function": "transferWithAuthorization(address,address,uint256,uint256,uint256,bytes32,bytes,uint8,bytes32,bytes32)",
      "arguments": [
        "0x0187523c9b2583B52c5Ca407b68A369F1a560F1B",
        "0xBDAD37BA2B3D62e1F0F083768c2b850072a5aC83",
        "1000000",
        "1763851277",
        "1763852377",
        "0xae5e0e73ede0daa83c0710d54be8bc3f2bdcfc8bb6308820aa3d506a16f6edf8",
        "0x000000000000000000000000bdad37ba2b3d62e1f0f083768c2b850072a5ac830000000000000000000000000000000000000000000000000000000000000040000000000000000000000000000000000000000000000000000000000000006000000000000000000000000000000000000000000000000000000000000000890000000000000000000000000187523c9b2583b52c5ca407b68a369f1a560f1b0000000000000000000000000187523c9b2583b52c5ca407b68a369f1a560f1b",
        "27",
        "0xa7c20db05106485ba52e91172d3b745dd5b2670f161302c75fe3761653cb12b6",
        "0x6a3d4f9b178d4b1484f7f7a398ea0aecf3ce3d9fb850c451f78df7a166ac936e"
      ],
      "transaction": {
        "from": "0x0187523c9b2583b52c5ca407b68a369f1a560f1b",
        "to": "0x3f5dbe3f44228774468d9a90232775270fbb1d31",
        "gas": "0x54277",
        "value": "0x0",
        "input": "0x4160a7670000000000000000000000000187523c9b2583b52c5ca407b68a369f1a560f1b000000000000000000000000bdad37ba2b3d62e1f0f083768c2b850072a5ac8300000000000000000000000000000000000000000000000000000000000f42400000000000000000000000000000000000000000000000000000000069223c0d0000000000000000000000000000000000000000000000000000000069224059ae5e0e73ede0daa83c0710d54be8bc3f2bdcfc8bb6308820aa3d506a16f6edf80000000000000000000000000000000000000000000000000000000000000140000000000000000000000000000000000000000000000000000000000000001ba7c20db05106485ba52e91172d3b745dd5b2670f161302c75fe3761653cb12b66a3d4f9b178d4b1484f7f7a398ea0aecf3ce3d9fb850c451f78df7a166ac936e00000000000000000000000000000000000000000000000000000000000000c0000000000000000000000000bdad37ba2b3d62e1f0f083768c2b850072a5ac830000000000000000000000000000000000000000000000000000000000000040000000000000000000000000000000000000000000000000000000000000006000000000000000000000000000000000000000000000000000000000000000890000000000000000000000000187523c9b2583b52c5ca407b68a369f1a560f1b0000000000000000000000000187523c9b2583b52c5ca407b68a369f1a560f1b",
        "nonce": "0x60",
        "chainId": "0x2105"
      },
      "additionalContracts": [],
      "isFixedGasLimit": false
    }
  ],
  "receipts": [
    {
      "status": "0x1",
      "cumulativeGasUsed": "0x250d686",
      "logs": [
        {
          "address": "0x3f5dbe3f44228774468d9a90232775270fbb1d31",
          "topics": [
            "0x98de503528ee59b575ef0c0a2576a82497bfc029a5685b209e9ec333479b10a5",
            "0x0000000000000000000000000187523c9b2583b52c5ca407b68a369f1a560f1b",
            "0xae5e0e73ede0daa83c0710d54be8bc3f2bdcfc8bb6308820aa3d506a16f6edf8"
          ],
          "data": "0x",
          "blockHash": "0x8a053711f223c7aa98d4cc14b3e8cbdfd3fd87962a9c9cec34057de15f14e63c",
          "blockNumber": "0x24befc9",
          "transactionHash": "0xb5061a9f8071dad8b13489d7f2f6ab846505dec2cc00b26d9af42a8330e7fb68",
          "transactionIndex": "0xe0",
          "logIndex": "0x1fd",
          "removed": false
        },
        {
          "address": "0x3f5dbe3f44228774468d9a90232775270fbb1d31",
          "topics": [
            "0xddf252ad1be2c89b69c2b068fc378daa952ba7f163c4a11628f55a4df523b3ef",
            "0x0000000000000000000000000187523c9b2583b52c5ca407b68a369f1a560f1b",
            "0x000000000000000000000000bdad37ba2b3d62e1f0f083768c2b850072a5ac83"
          ],
          "data": "0x00000000000000000000000000000000000000000000000000000000000f4240",
          "blockHash": "0x8a053711f223c7aa98d4cc14b3e8cbdfd3fd87962a9c9cec34057de15f14e63c",
          "blockNumber": "0x24befc9",
          "transactionHash": "0xb5061a9f8071dad8b13489d7f2f6ab846505dec2cc00b26d9af42a8330e7fb68",
          "transactionIndex": "0xe0",
          "logIndex": "0x1fe",
          "removed": false
        },
        {
          "address": "0x3f5dbe3f44228774468d9a90232775270fbb1d31",
          "topics": [
            "0xddf252ad1be2c89b69c2b068fc378daa952ba7f163c4a11628f55a4df523b3ef",
            "0x000000000000000000000000bdad37ba2b3d62e1f0f083768c2b850072a5ac83",
            "0x0000000000000000000000000000000000000000000000000000000000000000"
          ],
          "data": "0x00000000000000000000000000000000000000000000000000000000000f4240",
          "blockHash": "0x8a053711f223c7aa98d4cc14b3e8cbdfd3fd87962a9c9cec34057de15f14e63c",
          "blockNumber": "0x24befc9",
          "transactionHash": "0xb5061a9f8071dad8b13489d7f2f6ab846505dec2cc00b26d9af42a8330e7fb68",
          "transactionIndex": "0xe0",
          "logIndex": "0x1ff",
          "removed": false
        },
        {
          "address": "0xb5320b0b3a13cc860893e2bd79fcd7e13484dda2",
          "topics": [
            "0x61ed099e74a97a1d7f8bb0952a88ca8b7b8ebd00c126ea04671f92a81213318a"
          ],
          "data": "0x00000000000000000000000072f848a523f29ebab9fe0039757379f0c1166ab90000000000000000000000000000000000000000000000000000000000000000",
          "blockHash": "0x8a053711f223c7aa98d4cc14b3e8cbdfd3fd87962a9c9cec34057de15f14e63c",
          "blockNumber": "0x24befc9",
          "transactionHash": "0xb5061a9f8071dad8b13489d7f2f6ab846505dec2cc00b26d9af42a8330e7fb68",
          "transactionIndex": "0xe0",
          "logIndex": "0x200",
          "removed": false
        },
        {
          "address": "0xb5320b0b3a13cc860893e2bd79fcd7e13484dda2",
          "topics": [
            "0x07ea52d82345d6e838192107d8fd7123d9c2ec8e916cd0aad13fd2b60db24644"
          ],
          "data": "0x000000000000000000000000000000000000000000000000000000000000006000000000000000000000000000000000000000000000000000000000000000a000000000000000000000000000000000000000000000000000000000000000c00000000000000000000000000000000000000000000000000000000000000001000000000000000000000000068cdc6dd1d347a07ec07b9e5be0135d9821bc6b000000000000000000000000000000000000000000000000000000000000000000000000000000000000000000000000000000000000000000000000000000010000000000000000000000000000000000000000000000000000000000000000",
          "blockHash": "0x8a053711f223c7aa98d4cc14b3e8cbdfd3fd87962a9c9cec34057de15f14e63c",
          "blockNumber": "0x24befc9",
          "transactionHash": "0xb5061a9f8071dad8b13489d7f2f6ab846505dec2cc00b26d9af42a8330e7fb68",
          "transactionIndex": "0xe0",
          "logIndex": "0x201",
          "removed": false
        },
        {
          "address": "0x1a44076050125825900e736c501f859c50fe728c",
          "topics": [
            "0x1ab700d4ced0c005b164c0f789fd09fcbb0156d4c2041b8a3bfbcd961cd1567f"
          ],
          "data": "0x000000000000000000000000000000000000000000000000000000000000006000000000000000000000000000000000000000000000000000000000000001a0000000000000000000000000b5320b0b3a13cc860893e2bd79fcd7e13484dda20000000000000000000000000000000000000000000000000000000000000119010000000000000001000075e80000000000000000000000003f5dbe3f44228774468d9a90232775270fbb1d310000759d00000000000000000000000088870b97f107957456f3cdd33ee1ef39a1fdc7148bf13111215b04f0393660ae932a975b02cc5dbf730e6fb883ee746b5fe09aa800000000000000000000000088870b97f107957456f3cdd33ee1ef39a1fdc71400000000000f4240000000000000000000000000bdad37ba2b3d62e1f0f083768c2b850072a5ac83ae5e0e73ede0daa83c0710d54be8bc3f2bdcfc8bb6308820aa3d506a16f6edf80000000000000000000000000187523c9b2583b52c5ca407b68a369f1a560f1b0000000000000000000000000187523c9b2583b52c5ca407b68a369f1a560f1b000000000000000000000000000000000000000000000000000000000000000000000000000016000301001101000000000000000000000000000249f000000000000000000000",
          "blockHash": "0x8a053711f223c7aa98d4cc14b3e8cbdfd3fd87962a9c9cec34057de15f14e63c",
          "blockNumber": "0x24befc9",
          "transactionHash": "0xb5061a9f8071dad8b13489d7f2f6ab846505dec2cc00b26d9af42a8330e7fb68",
          "transactionIndex": "0xe0",
          "logIndex": "0x202",
          "removed": false
        },
        {
          "address": "0x3f5dbe3f44228774468d9a90232775270fbb1d31",
          "topics": [
            "0x85496b760a4b7f8d66384b9df21b381f5d1b1e79f229a47aaf4c232edc2fe59a",
            "0x8bf13111215b04f0393660ae932a975b02cc5dbf730e6fb883ee746b5fe09aa8",
            "0x000000000000000000000000bdad37ba2b3d62e1f0f083768c2b850072a5ac83"
          ],
          "data": "0x000000000000000000000000000000000000000000000000000000000000759d00000000000000000000000000000000000000000000000000000000000f424000000000000000000000000000000000000000000000000000000000000f4240",
          "blockHash": "0x8a053711f223c7aa98d4cc14b3e8cbdfd3fd87962a9c9cec34057de15f14e63c",
          "blockNumber": "0x24befc9",
          "transactionHash": "0xb5061a9f8071dad8b13489d7f2f6ab846505dec2cc00b26d9af42a8330e7fb68",
          "transactionIndex": "0xe0",
          "logIndex": "0x203",
          "removed": false
        }
      ],
      "logsBloom": "0x0000000000000000000000000000000000000000000000000000000000100000000000000000000000000000000000000000000000000000000000020000000020001200004000000000041800000000000000000000000000000001000000030000000002000200800400000000080000000000001000000000001000000000000000000000080000000008000000000000000000000000400400000000000000000000a000000000100400000000000004010000400000000440040000000000000002000004000000000080000000000000000000000000000000000020000000040000000000000002000000002000000000018000000000000000000000",
      "type": "0x2",
      "transactionHash": "0xb5061a9f8071dad8b13489d7f2f6ab846505dec2cc00b26d9af42a8330e7fb68",
      "transactionIndex": "0xe0",
      "blockHash": "0x8a053711f223c7aa98d4cc14b3e8cbdfd3fd87962a9c9cec34057de15f14e63c",
      "blockNumber": "0x24befc9",
      "gasUsed": "0x398a9",
      "effectiveGasPrice": "0x5ae21",
      "from": "0x0187523c9b2583b52c5ca407b68a369f1a560f1b",
      "to": "0x3f5dbe3f44228774468d9a90232775270fbb1d31",
      "contractAddress": null,
      "l1BaseFeeScalar": "0x8dd",
      "l1BlobBaseFee": "0x1",
      "l1BlobBaseFeeScalar": "0x101c12",
      "l1Fee": "0x26a12aa1",
      "l1GasPrice": "0x440c51c",
      "l1GasUsed": "0xfa3"
    }
  ],
  "libraries": [],
  "pending": [],
  "returns": {},
  "timestamp": 1763851381938,
  "chain": 8453,
  "commit": "074be9a"
}