{
  "transactions": [
    {
      "hash": null,
      "transactionType": "CALL",
      "contractName": null,
      "contractAddress": "0x3f5dbe3f44228774468d9a90232775270fbb1d31",
      "function": "transferWithAuthorization(address,address,uint256,uint256,uint256,bytes32,bytes,uint8,bytes32,bytes32)",
      "arguments": [
        "0x0187523c9b2583B52c5Ca407b68A369F1a560F1B",
        "0xBDAD37BA2B3D62e1F0F083768c2b850072a5aC83",
        "1000000",
        "1763846353",
        "1763847453",
        "0xe61506b08aa5d5b0fd96be36421e23df7421cc848bb3c153c4df01e6e15748d4",
        "0x000000000000000000000000bdad37ba2b3d62e1f0f083768c2b850072a5ac830000000000000000000000000000000000000000000000000000000000000040000000000000000000000000000000000000000000000000000000000000006000000000000000000000000000000000000000000000000000000000000000890000000000000000000000000187523c9b2583b52c5ca407b68a369f1a560f1b0000000000000000000000000187523c9b2583b52c5ca407b68a369f1a560f1b",
        "27",
        "0x5856da0e013843efae14b627c411b3744a3e7bf9f483be6319622c77b3beab0d",
        "0x761720101f41ad671d2fb262bf14a578d446da1471eadb6e5e44ddfe33e15b56"
      ],
      "transaction": {
        "from": "0x0187523c9b2583b52c5ca407b68a369f1a560f1b",
        "to": "0x3f5dbe3f44228774468d9a90232775270fbb1d31",
        "gas": "0x54277",
        "value": "0x0",
        "input": "0x4160a7670000000000000000000000000187523c9b2583b52c5ca407b68a369f1a560f1b000000000000000000000000bdad37ba2b3d62e1f0f083768c2b850072a5ac8300000000000000000000000000000000000000000000000000000000000f424000000000000000000000000000000000000000000000000000000000692228d10000000000000000000000000000000000000000000000000000000069222d1de61506b08aa5d5b0fd96be36421e23df7421cc848bb3c153c4df01e6e15748d40000000000000000000000000000000000000000000000000000000000000140000000000000000000000000000000000000000000000000000000000000001b5856da0e013843efae14b627c411b3744a3e7bf9f483be6319622c77b3beab0d761720101f41ad671d2fb262bf14a578d446da1471eadb6e5e44ddfe33e15b5600000000000000000000000000000000000000000000000000000000000000c0000000000000000000000000bdad37ba2b3d62e1f0f083768c2b850072a5ac830000000000000000000000000000000000000000000000000000000000000040000000000000000000000000000000000000000000000000000000000000006000000000000000000000000000000000000000000000000000000000000000890000000000000000000000000187523c9b2583b52c5ca407b68a369f1a560f1b0000000000000000000000000187523c9b2583b52c5ca407b68a369f1a560f1b",
        "nonce": "0x42",
        "chainId": "0x2105"
      },
      "additionalContracts": [],
      "isFixedGasLimit": false
    }
  ],
  "receipts": [],
  "libraries": [],
  "pending": [],
  "returns": {},
  "timestamp": 1763846456582,
  "chain": 8453,
  "commit": "66e7327"
}