{
  "transactions": [
    {
      "hash": null,
      "transactionType": "CALL",
      "contractName": null,
      "contractAddress": "0x3f5dbe3f44228774468d9a90232775270fbb1d31",
      "function": "transferWithAuthorization(address,address,uint256,uint256,uint256,bytes32,bytes,uint8,bytes32,bytes32)",
      "arguments": [
        "0x0187523c9b2583B52c5Ca407b68A369F1a560F1B",
        "0xBDAD37BA2B3D62e1F0F083768c2b850072a5aC83",
        "1000000",
        "1763845841",
        "1763846941",
        "0x5da6b23469d0b6a6c7f03b1d08bc96badf3b84bc3a6c7498aa3b0f3f9816a376",
        "0x000000000000000000000000bdad37ba2b3d62e1f0f083768c2b850072a5ac830000000000000000000000000000000000000000000000000000000000000040000000000000000000000000000000000000000000000000000000000000006000000000000000000000000000000000000000000000000000000000000000890000000000000000000000000187523c9b2583b52c5ca407b68a369f1a560f1b0000000000000000000000000187523c9b2583b52c5ca407b68a369f1a560f1b",
        "28",
        "0xb29fa3ebaacb7d1e5ea669be929b9ef95c5c8fa8f63f02f9567aed5078bb6677",
        "0x175da179ca50f40a8946b0c68d9eec32ad9323e5b886e6c85d89a381c8755234"
      ],
      "transaction": {
        "from": "0x0187523c9b2583b52c5ca407b68a369f1a560f1b",
        "to": "0x3f5dbe3f44228774468d9a90232775270fbb1d31",
        "gas": "0x4f7c4",
        "value": "0x0",
        "input": "0x4160a7670000000000000000000000000187523c9b2583b52c5ca407b68a369f1a560f1b000000000000000000000000bdad37ba2b3d62e1f0f083768c2b850072a5ac8300000000000000000000000000000000000000000000000000000000000f424000000000000000000000000000000000000000000000000000000000692226d10000000000000000000000000000000000000000000000000000000069222b1d5da6b23469d0b6a6c7f03b1d08bc96badf3b84bc3a6c7498aa3b0f3f9816a3760000000000000000000000000000000000000000000000000000000000000140000000000000000000000000000000000000000000000000000000000000001cb29fa3ebaacb7d1e5ea669be929b9ef95c5c8fa8f63f02f9567aed5078bb6677175da179ca50f40a8946b0c68d9eec32ad9323e5b886e6c85d89a381c875523400000000000000000000000000000000000000000000000000000000000000c0000000000000000000000000bdad37ba2b3d62e1f0f083768c2b850072a5ac830000000000000000000000000000000000000000000000000000000000000040000000000000000000000000000000000000000000000000000000000000006000000000000000000000000000000000000000000000000000000000000000890000000000000000000000000187523c9b2583b52c5ca407b68a369f1a560f1b0000000000000000000000000187523c9b2583b52c5ca407b68a369f1a560f1b",
        "nonce": "0x42",
        "chainId": "0x2105"
      },
      "additionalContracts": [],
      "isFixedGasLimit": false
    }
  ],
  "receipts": [],
  "libraries": [],
  "pending": [],
  "returns": {},
  "timestamp": 1763845943677,
  "chain": 8453,
  "commit": "66e7327"
}