{
  "transactions": [
    {
      "hash": null,
      "transactionType": "CALL",
      "contractName": null,
      "contractAddress": "0x5fac7f2c99d9e06deff2f579fde67a2ecdf0e0ac",
      "function": "transferWithAuthorization(address,address,uint256,uint256,uint256,bytes32,bytes,uint8,bytes32,bytes32)",
      "arguments": [
        "0x0187523c9b2583B52c5Ca407b68A369F1a560F1B",
        "0xC1333a31EE5f3F302CB0428921f2908e6CAddEb1",
        "1000000",
        "1763787813",
        "1763788913",
        "0xc40310c9381b3156f4ed57cb5988c2ad1dd91f757930a4dc6b1ecb367efcfc5b",
        "0x000000000000000000000000c1333a31ee5f3f302cb0428921f2908e6caddeb10000000000000000000000000000000000000000000000000000000000000040000000000000000000000000000000000000000000000000000000000000004000000000000000000000000000000000000000000000000000000000000000890000000000000000000000000187523c9b2583b52c5ca407b68a369f1a560f1b",
        "27",
        "0xa9a71765e19385df3614f690d4ba46792cc8e17cb9a263229b66e08148ea52c4",
        "0x1ab4874f7e0cca58b28c88247e9a8e960b6ab2ace9d06aa72e5c030f6c565eeb"
      ],
      "transaction": {
        "from": "0x0187523c9b2583b52c5ca407b68a369f1a560f1b",
        "to": "0x5fac7f2c99d9e06deff2f579fde67a2ecdf0e0ac",
        "gas": "0x4f404",
        "value": "0x0",
        "input": "0x4160a7670000000000000000000000000187523c9b2583b52c5ca407b68a369f1a560f1b000000000000000000000000c1333a31ee5f3f302cb0428921f2908e6caddeb100000000000000000000000000000000000000000000000000000000000f424000000000000000000000000000000000000000000000000000000000692144250000000000000000000000000000000000000000000000000000000069214871c40310c9381b3156f4ed57cb5988c2ad1dd91f757930a4dc6b1ecb367efcfc5b0000000000000000000000000000000000000000000000000000000000000140000000000000000000000000000000000000000000000000000000000000001ba9a71765e19385df3614f690d4ba46792cc8e17cb9a263229b66e08148ea52c41ab4874f7e0cca58b28c88247e9a8e960b6ab2ace9d06aa72e5c030f6c565eeb00000000000000000000000000000000000000000000000000000000000000a0000000000000000000000000c1333a31ee5f3f302cb0428921f2908e6caddeb10000000000000000000000000000000000000000000000000000000000000040000000000000000000000000000000000000000000000000000000000000004000000000000000000000000000000000000000000000000000000000000000890000000000000000000000000187523c9b2583b52c5ca407b68a369f1a560f1b",
        "nonce": "0xd",
        "chainId": "0x2105"
      },
      "additionalContracts": [],
      "isFixedGasLimit": false
    }
  ],
  "receipts": [],
  "libraries": [],
  "pending": [],
  "returns": {},
  "timestamp": 1763787916918,
  "chain": 8453,
  "commit": "d944be4"
}