{
  "transactions": [
    {
      "hash": null,
      "transactionType": "CALL",
      "contractName": null,
      "contractAddress": "0x5fac7f2c99d9e06deff2f579fde67a2ecdf0e0ac",
      "function": "transferWithAuthorization(address,address,uint256,uint256,uint256,bytes32,bytes,uint8,bytes32,bytes32)",
      "arguments": [
        "0x0187523c9b2583B52c5Ca407b68A369F1a560F1B",
        "0xC1333a31EE5f3F302CB0428921f2908e6CAddEb1",
        "1000000",
        "1763789203",
        "1763790303",
        "0xf5c3b7e7a7e9e0f2e27100de9003a4f465c83924a4f8a0e8bc2cac10447f9be8",
        "0x000000000000000000000000c1333a31ee5f3f302cb0428921f2908e6caddeb10000000000000000000000000000000000000000000000000000000000000040000000000000000000000000000000000000000000000000000000000000004000000000000000000000000000000000000000000000000000000000000000890000000000000000000000000187523c9b2583b52c5ca407b68a369f1a560f1b",
        "27",
        "0xafe18d49c3dfe153c44ae7a95183a3f184c5b13aa91f4bea1f3f7e650694f33d",
        "0x3a1db98f62b65ef8d263fa138056640247c9c3cb3a67a723e5fb3d5e54fa7247"
      ],
      "transaction": {
        "from": "0x0187523c9b2583b52c5ca407b68a369f1a560f1b",
        "to": "0x5fac7f2c99d9e06deff2f579fde67a2ecdf0e0ac",
        "gas": "0x53e8a",
        "value": "0x0",
        "input": "0x4160a7670000000000000000000000000187523c9b2583b52c5ca407b68a369f1a560f1b000000000000000000000000c1333a31ee5f3f302cb0428921f2908e6caddeb100000000000000000000000000000000000000000000000000000000000f424000000000000000000000000000000000000000000000000000000000692149930000000000000000000000000000000000000000000000000000000069214ddff5c3b7e7a7e9e0f2e27100de9003a4f465c83924a4f8a0e8bc2cac10447f9be80000000000000000000000000000000000000000000000000000000000000140000000000000000000000000000000000000000000000000000000000000001bafe18d49c3dfe153c44ae7a95183a3f184c5b13aa91f4bea1f3f7e650694f33d3a1db98f62b65ef8d263fa138056640247c9c3cb3a67a723e5fb3d5e54fa724700000000000000000000000000000000000000000000000000000000000000a0000000000000000000000000c1333a31ee5f3f302cb0428921f2908e6caddeb10000000000000000000000000000000000000000000000000000000000000040000000000000000000000000000000000000000000000000000000000000004000000000000000000000000000000000000000000000000000000000000000890000000000000000000000000187523c9b2583b52c5ca407b68a369f1a560f1b",
        "nonce": "0xd",
        "chainId": "0x2105"
      },
      "additionalContracts": [],
      "isFixedGasLimit": false
    }
  ],
  "receipts": [],
  "libraries": [],
  "pending": [],
  "returns": {},
  "timestamp": 1763789306511,
  "chain": 8453,
  "commit": "9db4fb9"
}